014140200038498026987506b94c1386c201603071                                                                                                                                                                                                                                                                            
0200000000000112345678220000123456782           19850108020Castricum                van       1                                   0EB    11000000000                         00                                                                                                                                       
040000000000020000123456782                               0100004       1234AB  Eekholt                 Diemen                  NL                                   0201234567     0031                   catricum@email.nl                                                     0000000000000000                     
080000000000030000123456782           0000000006587211230000201603072016030720161231                                                                                                                                                                                                                                  
090000000000040000123456782           0000000006587211230101A01201603072016123100022500834                                                                                                                                                                                                                            
150000000000050000123456782           0000000006587211230101A01980269870384201603071612582016030720161231000022500834                                                                                                                                                                                                 
990000010000000000010000000000010000010000000000010000000000005                                                                                                                                                                                                                                                       
