014140200039298025566a8af40c9d691201610101                                                                                                                                                                                                                                                                            
0200000000000112345678220000123456782           19850106010Gaastra                            1                                   0DHR   13000000000                         00                                                                                                                                       
030000000000020000123456782           00000000001         00121986040102Mistral                            1                                   0DS    1                                                                                                                                                               
040000000000030000123456782           00000000001         0100009       1414EB  Straatweg               Haarlem                 NL                                                                         dsmistral@email.nl                                                    0000000000000000                     
040000000000040000123456782                               0100009       1414EB  Straatweg               Haarlem                 NL                                   0237654321     0031                   dhrgaastra@email.nl                                                   0000000000000000                     
080000000000050000123456782           0000000004253861230000201610102016101020161231                                                                                                                                                                                                                                  
090000000000060000123456782           0000000004253861230707A03201610102016123100000012042                                                                                                                                                                                                                            
150000000000070000123456782           0000000004253861230707A03980255660392201610101522262016101020161231000000012042                                                                                                                                                                                                 
990000010000010000020000000000010000010000000000010000000000007                                                                                                                                                                                                                                                       
