0141402000384980255661d8d1f0852bf201602201                                                                                                                                                                                                                                                                            
0200000000000112345678220000123456782           19850106010Gaastra                            1                                   0DHR   13000000000                         00                                                                                                                                       
030000000000020000123456782           00000000001         00121986040102Mistral                            1                                   0DS    1                                                                                                                                                               
040000000000030000123456782           00000000001         0100004       1234AB  Eekholt                 Diemen                  NL                                                                         dsmistral@email.nl                                                    0000000000000000                     
040000000000040000123456782                               0100004       1234AB  Eekholt                 Diemen                  NL                                   0201234567     0031                   DHRGaastra@email.nl                                                   0000000000000000                     
080000000000050000123456782           0000000004253861230000201602152016021520161231                                                                                                                                                                                                                                  
090000000000060000123456782           0000000004253861230707A03201602152016123100000006042                                                                                                                                                                                                                            
150000000000070000123456782           0000000004253861230707A03980255660384201602201423262016021520161231000000006042                                                                                                                                                                                                 
990000010000010000020000000000010000010000000000010000000000007                                                                                                                                                                                                                                                       
