014140200038442420111123456789012201501011                                                                                                                                                                                                                                                                            
0200000000000112345678220000123456782           19800101022Vries                    de        1Berg                               2PR    39000000001Zweeds                   00                                                                                                                                       
030000000000020000123456782           0000000000123456789000121980020101Berg                               1                                   0BDG   1                                                                                                                                                               
040000000000030000123456782           000000000012345678900100004Abis   1112XH  Eekholt                 Enschede                NL                                   0531234567     0031                   testemail1@gmail.com                                                  0000000000000000                     
040000000000040000123456782                               0100004Abis   1112XH  Eekholt                 Enschede                NL                                   0531234567     0031                   testemail1@gmail.com                                                  0000000000000000                     
080000000000050000123456782           0000000001122334460400201501012015010120151231                                                                                                                                                                                                                                  
090000000000060000123456782           0000000001122334460101A00201501012015123100000006042                                                                                                                                                                                                                            
150000000000070000123456782           0000000001122334460101A00424201110384201501011200002015010120151231000000006042                                                                                                                                                                                                 
990000010000010000020000000000010000010000000000010000000000007                                                                                                                                                                                                                                                       